:0300000002007586
:10000300110632C2AFE479DED9FEA2B23379DED96A
:10001300FE79DED9FEA2B23379DED9FE79DED9FECE
:10002300A2B23379DED9FE64056003D2AF227A0629
:10003300E479DED9FEA2B23379DED9FE79DED9FEC8
:1000430079DCD9FEDAEBF5217A06E479DED9FEA272
:10005300B23379DED9FE79DED9FE79DCD9FEDAEB6B
:10006300F522C2A08522A0E522643F6002B2B1D28C
:10007300AF22D2B2C2A0C290D2B1D2A8C288D2AFAC
:0500830075230080FE62
:00000001FF
