:030000000200EB10
:03000300111632A1
:03000B001184322B
:10001300119E32C2A8E47CDEDCFEA2B2337CDCDCBF
:10002300FE7CDEDCFEA2B2337CDCDCFE7CDEDCFEAE
:10003300A2B2337CDCDCFE64006003D2A8227D061E
:10004300E47CDEDCFE7CDEDCFE7CDEDCFEA2B233A6
:100053007CDCDCFEDDEBF5217D06E47CDEDCFE7C76
:10006300DEDCFE7CDEDCFEA2B2337CDCDCFEDDEB20
:10007300F520E521542065226004F522D219D2A887
:1000830022C28CC28DDE0BC2B17E14758C3C758A84
:10009300B022758C3C758AB0D28C22E4A2B633A20E
:1000A300B433A2B533A2B733F520D2192275A00019
:1000B3007FFFDFFE7FFFDFFE7FFFDFFE7FFFDFFED1
:1000C3007FFFDFFE7FFFDFFE7FFFDFFE7FFFDFFEC1
:1000D3002279087AFF7BFFDBFE201904DAF7D9F3D4
:1000E300227F7811D4DFFC22D294C2B1D2B2C2B63D
:1000F300C2B4C2B5C2B7C2B375800075A000C2193D
:10010300752000D2A8D288D2AAD28A7589117E140A
:10011300758C3C758AB0D2A9D2AF3019FDC219D201
:10012300B1D28CE520F580B4000575A00080EBB456
:10013300010C11B075A05C11D475A00080DCB40271
:100143000711B075A05C80D2B4030C11B075A095F3
:1001530011D475A00080C3B4040711B075A09580B5
:10016300B9B4050C11B075A06A11D475A00080AAAA
:10017300B4060711B075A06A80A0B4070C11B0755E
:10018300A0A311D475A0008091B4080711B075A085
:10019300A38087B40F84C2A8C2AA11B011E4C29489
:0601A30011D411D411D4A7
:00000001FF
