:0300000002006398
:10001300111632E4A2B633A2B433A2B533A2B73376
:10002300F520D2092275A0007FFFDFFE7FFFDFFEF0
:100033007FFFDFFE7FFFDFFE7FFFDFFE7FFFDFFE51
:100043007FFFDFFE7FFFDFFE2279087AFF7BFFDB86
:10005300FE200904DAF7D9F3227F78114CDFFC2262
:10006300C2B1D2B3D2B6D2B4D2B5D2B7D29475A0FC
:1000730000C209752000D2AAD28AD2AF3009FDC2CC
:1000830009E520B4000575A00080F1B4010C112826
:1000930075A05C114C75A00080E2B40207112875AD
:1000A300A05C80D8B4030C112875A095114C75A0E1
:1000B3000080C9B40407112875A09580BFB4050C4E
:1000C300112875A06A114C75A00080B0B406071101
:1000D3002875A06A80A6B4070C112875A0A3114C3B
:1000E30075A0008097B40807112875A0A3808DB46C
:1000F3000F8AC2AF1128115CC294114C114C114CE0
:00000001FF
