:0300000002002CCF
:10000300110632E4A2B633A2B433A2B533A2B73396
:10001300F520D2092275A0007FFFDFFE7FFFDFFE00
:100023007FFFDFFE7FFFDFFE22C2B1D2B3D2B6D2A3
:10003300B4D2B5D2B7D294C209752000D2AAC28A6B
:10004300D2AF111875A05C79AF7AFF7BFFDBFEDAC4
:10005300FAD9F6B2B1111875A0A379AF7AFF7BFF75
:10006300DBFEDAFAD9F6B2B1111875A09579AF7A39
:10007300FF7BFFDBFEDAFAD9F6B2B1111875A06A7D
:1000830079AF7AFF7BFFDBFEDAFAD9F6B2B180B241
:100093003009FDC209E520B5000575A00080F1B562
:1000A300010775A000000080E7B5020775A00000F6
:1000B3000080DDB5030775A000000080D3B50407F9
:1000C30075A000000080C9B5050775A00000008079
:1000D300BFB5060775A000000080B5B5070775A07A
:1000E30000000080ABB5080775A000000080A1B533
:0B00F3000F9E75A0000000C2948095D5
:00000001FF
