:030000000200EB10
:03000300111632A1
:03000B001184322B
:10001300119E32C2A8E47CDEDCFEA2B2337CDCDCBF
:10002300FE7CDEDCFEA2B2337CDCDCFE7CDEDCFEAE
:10003300A2B2337CDCDCFE64006003D2A8227D061E
:10004300E47CDEDCFE7CDEDCFE7CDEDCFEA2B233A6
:100053007CDCDCFEDDEBF5217D06E47CDEDCFE7C76
:10006300DEDCFE7CDEDCFEA2B2337CDCDCFEDDEB20
:10007300F520E521542065226004F522D221D2A87F
:1000830022C28CC28DDE0BC2B17E14758C3C758A84
:10009300B022758C3C758AB0D28C22E4A2B633A20E
:1000A300B433A2B533A2B733F520D2212275A00011
:1000B3007FFFDFFE7FFFDFFE7FFFDFFE7FFFDFFED1
:1000C3007FFFDFFE7FFFDFFE7FFFDFFE7FFFDFFEC1
:1000D3002279087AFF7BFFDBFE202104DAF7D9F3CC
:1000E300227F7811D4DFFC22D294C2B1D2B2C2B63D
:1000F300C2B4C2B5C2B7C2B375800075A000C22135
:100103007520007523FFD2A8D288D2AAD28A758916
:10011300117E14758C3C758AB0D2A9D2AF3021FD03
:10012300C221D2B1D28CE520F580B4000575A000C0
:1001330080EBB4010F11B07423545CF5A011D47596
:10014300A00080D9B4020A11B07423545CF5A080D6
:10015300CCB4030F11B074235495F5A011D475A03A
:100163000080BAB4040A11B074235495F5A080AD8D
:10017300B4050F11B07423546AF5A011D475A0000F
:10018300809BB4060A11B07423546AF5A0808EB420
:10019300071011B0742354A3F5A011D475A0000265
:1001A3000120B4080B11B0742354A3F5A00201205D
:1001B300B4090675230F020120B40A067523F00261
:1001C3000120B40B067523FF020120B40F10C2A84F
:1001D300C2AA11B011E4C29411D411D411D40201F2
:0101E30020FB
:00000001FF
